:060000000A128A11FC2F18
:100724008312031305108510080083120313851721
:100734008710051707110800831203138513871404
:100744000513071508008312031385178710051373
:10075400071108008312031385138710051307116B
:100764000800831203138513871005170711080067
:1007740070037104031DBF2BC02BC52B83120313FD
:1007840005148510C92B8312031305108514080062
:100794000310831203133C0D3D0DBE003E08C4003C
:1007A4004408031DD62BD72BE02B0030BD000030AE
:1007B400BC000030BB000030BA00452C3A08BE0033
:1007C4003B08BF003C08C0003D08C1001F300310B7
:1007D400C10CC00CBF0CBE0CFF3E031DE92B3E0830
:1007E400C2004208C300BC17FF30BA05FF30BB0586
:1007F400FF30BC050030BD059630C402C41F032C75
:10080400042C1E2C4408803A973E03180A2C0B2C07
:100814000C2CD72B01300310BD0CBC0CBB0CBA0C38
:10082400FF3E031D0D2C0130BE003E08C407031D0E
:100834001C2C1D2C0C2C352C20304402031C232C86
:10084400242C302CD72B0130BE000310BA0DBB0D65
:10085400BC0DBD0DBE0B272C0130C4024408031D82
:10086400342C352C252C43080319392C3A2C452CCF
:10087400BA09BB09BC09BD09BA0A0319BB0A0319A1
:10088400BC0A0319BD0A0800F800780803194B2CA8
:100894004C2C602CF31F4F2C502C602C7009FA0048
:1008A4007109FB007209FC007309FD00FA0A0319BF
:1008B400FB0A0319FC0A0319FD0A682C7308FD00DE
:1008C4007208FC007108FB007008FA0073087204D7
:1008D40071047004031D6F2C702C792C0030F3000C
:1008E4000030F2000030F1000030F000FF2C9630B0
:1008F400F4007408F9008B2C0130F4007408F90733
:1009040001300310FD0CFC0CFB0CFA0CFF3E031D24
:10091400832CFE307D05031D902C912C7E2CAD2C58
:100924000130F4007408F9070130FA0700300318A5
:100934000130FB07003003180130FC0700300318B6
:100944000130FD0701300310FD0CFC0CFB0CFA0C0C
:10095400FF3E031DA52CFF307D05031DB22CB32CD7
:10096400922CBF2C0130F9020130F4000310FA0D6F
:10097400FB0DFC0DFD0DF40BB82CFC1BC22CC32C81
:10098400C92C023079020318C82CC92CB42C79184C
:10099400CC2CCD2CD52CFF30FA05FF30FB057F3055
:1009A400FC05FF30FD050310F90C7908F400F5018E
:1009B400F601F70118300310F40DF50DF60DF70DDF
:1009C400FF3E031DDD2C7408FA047508FB04760849
:1009D400FC047708FD0478080319F12CF22CF72C99
:1009E400F31FF52CF62CF72CFD177D08F3007C087B
:1009F400F2007B08F1007A08F00008000430831646
:100A040003138500033086008316031788018316B9
:100A140003138701103083120313900086130A1204
:100A24008A119E230A128A11063083120313C70007
:100A34001330C600AD30C500C50B1E2DC60B1E2DD0
:100A4400C70B1E2D0A128A11A5230A128A1101301E
:100A5400F0000030F1000A128A11BA230A128A1136
:100A6400063083120313C7001330C600AD30C5002F
:100A7400C50B3A2DC60B3A2DC70B3A2D0A128A1113
:100A8400B3230A128A110030F000F1000A128A110D
:100A9400BA230A128A11063083120313C7001330D3
:100AA400C600AD30C500C50B552DC60B552DC70B63
:100AB400552D0A128A11AC230A128A1106308312A8
:100AC4000313C7001330C600AD30C500C50B682D35
:100AD400C60B682DC70B682D0A128A1197230A12B8
:100AE4008A110A128A1192230A128A110A128A118D
:100AF40097230A128A11831203138F018E0185151D
:100B0400023083120313C500C50B862D0000831227
:100B140003138511051D8F2D902D8C2D101405198F
:100B2400942D952D912D10100F08C9000E08C800A2
:100B34004808F0004908F1000030F11BFF30F200D2
:100B4400F30001300A128A1146240A128A1173082A
:100B540083120313A7007208A6007108A500700889
:100B6400A4004130A300EB30A2004730A100AE3016
:100B7400A0000A128A111F260A128A118312031373
:100B84002308BD002208BC002108BB002008BA00CD
:100B94000A128A11CA230A128A11831203133B0808
:100BA400C9003A08C8004808013EC80049080318AB
:100BB400013E003EC9004908803AFF0080307F02B0
:100BC400031DE62D02304802031CE92DEA2D782D81
:100BD400831203134908803AFF0081307F02031D0A
:100BE400F52D913048020318F82DF92D782D831234
:100BF40003134908803AFF0080307F02031D042E4E
:100C04000A3048020318072E082E782D0A128A117A
:100C1400AC230A128A11063083120313C70013305F
:100C2400C600AD30C500C50B152EC60B152EC70B5F
:100C3400152E782D0A128A1100288312031327080F
:100C44008039A8002808B1002708A8002807A900AF
:100C54002908B800A61F2F2E302E312E381438083C
:100C64000319352E362E462E380A031D3A2E3B2EF6
:100C7400432E0030A7000030A6000030A50000304D
:100C8400A400A617A7014E2E0030A7000030A6002E
:100C94000030A5000030A40023088039A8002808EB
:100CA400B1062308A8002807A9002908B900A21F33
:100CB4005C2E5D2E5E2E391439080319622E632EC4
:100CC400732E390A031D672E682E702E0030A30080
:100CD4000030A2000030A1000030A000A217A30140
:100CE4007B2E0030A3000030A2000030A1000030B1
:100CF400A0002308220421042004031D822E832E35
:100D04009C2E0030A7000030A6000030A500003063
:100D1400A4008030A6047F30A7043108A800280866
:100D2400A7042708A3002608A2002508A100240878
:100D3400A000FB2F3808031DA02EA12EAA2E0030E0
:100D4400A3000030A2000030A1000030A000FB2F5F
:100D54003808A800A9012908AB0039082802AA000C
:100D6400031CAB032A087F3EB2002B080318013E84
:100D7400003EB3002708B0002608AF002508AE00E7
:100D84002408AD000030A7000030A6000030A50004
:100D94000030A4000030B7000030B6000030B500C9
:100DA4000030B400B901202F39080319DA2EDB2EE4
:100DB400FB2E0130A8000310AD0DAE0DAF0DB00D2C
:100DC400A80BDD2E0130A8000310A40DA50DA60D5F
:100DD400A70DA80BE62EB71FF02EF12EF22E241429
:100DE4000130A8000310B40DB50DB60DB70DA80B56
:100DF400F42E23083002031D092F22082F02031D9D
:100E0400092F21082E02031D092F20082D02031C7F
:100E14000C2F0D2F1C2F37172008AD022108031C9F
:100E2400210FAE022208031C220FAF022308031C69
:100E3400230FB0020130A8002808B9071A3039027C
:100E4400031C252F262FD62E30082F042E042D0404
:100E540003192D2F2E2F4D2F34144D2F0130A800A0
:100E64000310A40DA50DA60DA70DA80B322FB71FB7
:100E74003C2F3D2F3E2F24140130A8000310B40D45
:100E8400B50DB60DB70DA80B402FFF30B2070318F0
:100E9400B30AFF30B307A61F502F512F302FB901CB
:100EA400B71F552F562F722FFF303405A800FF307F
:100EB4003505A900FF303605AA007F303705AB00A1
:100EC4002B082A04290428040319692F6A2F6D2F7B
:100ED400B901B90A722F241C702F712F722F6A2F37
:100EE40039080319762F772FA82F0130A407003073
:100EF40003180130A507003003180130A60700309D
:100F040003180130A707271C882F892FA82F24082E
:100F1400A8002508A9002608AA002708AB0001306C
:100F2400AC002B0DAB0CAA0CA90CA80CAC0B932F8A
:100F34002B08A7002A08A6002908A5002808A40051
:100F44000130B2070318B30A0030B3073308803AFC
:100F5400FF0080307F02031DB12FFF303202031CDB
:100F6400B42FB52FC32FFF3083120313B200003008
:100F7400B3000030A7000030A6000030A500003008
:100F8400A400831203133308803AFF0080307F02E9
:100F9400031DCE2F013032020318D12FD22FDF2FA1
:100FA40083120313B201B3010030A7000030A6007E
:100FB4000030A5000030A400B101831203133208ED
:100FC400A8002808B800381CE82FE92FEB2FA61733
:100FD400EF2F7F30A8002808A6053808A8000310C2
:100FE400280CA9002908A7003108A8002808A7048C
:0C0FF400932E080083010A128A11002DC0
:08400000FF3FFF3FFF3FFF3FC0
:04400E00E428FF3F64
:00000001FF
