:060000000A128A11FC2F18
:100F1400831203130708023887000708FE39870085
:100F24000800F401F40AF0308316031387008601E5
:100F3400F201F301831203130608013886000A1232
:100F44008A118A270A128A1183120313071AAB2FF4
:100F5400AD2F0130AE2F0030F000070E01397106BD
:100F6400031DB52FB72F0130B82F0030700500389E
:100F74000319BD2FBE2FC42F0130F2070318F30A43
:100F84000030F3070030071A0130F10064307206B4
:100F94007304031DCE2FCF2FD22F740906058600AC
:100FA4001A307206043003197306031DDA2FDB2F7F
:100FB400DE2F7408060486007E307206043003199E
:100FC4007306031DE62FE72FEA2F74090605860032
:100FD40034307206083003197306031DF22FF32F01
:100FE400A62F740806048600F201F301A62F0A1244
:0C0FF4008A11002883010A128A11932F31
:08400000FF3FFF3FFF3FFF3FC0
:04400E00E428FF3F64
:00000001FF
