:100000000A128A11FC2F00308A000408840A820731
:0E0010000034B43400345A3400340034003468
:100E580083120313051085100800831203138513EA
:100E68008710051307110800043083160313850043
:100E7800033086008316031788018316031387013E
:100E88000A128A112C270A128A110A128A1131278A
:100E98000A128A110630F8001330F700AD30F60058
:100EA800F60B542FF70B542FF80B542F5B2F5A3097
:100EB800F0000030F1000A128A1193270A128A11F1
:100EC8000630F8001330F700AD30F600F60B6A2F45
:100ED800F70B6A2FF80B6A2F712F0030F000F10022
:100EE8000A128A1193270A128A110630F800133061
:100EF800F700AD30F600F60B7F2FF70B7F2FF80BBE
:100F08007F2F862FB430F0000030F1000A128A11CA
:100F180093270A128A114E2F0A128A110028F40107
:100F2800F501831203130714C730F2009B2FF20B4D
:100F38009A2F9E2F9F2FAE2FA630F200F20BA22FD2
:100F48000000BE2FC730F200A92FF20BA82FAC2F3C
:100F5800AD2FBE2F7108003A0319B32FA02F7008C8
:100F6800003A0319BE2F5A3A0319A02FEE3A031973
:100F7800A62FA02F831203130710D02FC730F2001B
:100F8800C52FF20BC42FC82FC92FE02FA630F200AF
:100F9800F20BCC2F0000E02F7108003A0319D52F6F
:100FA800CA2F7008003A0319C22F5A3A0319CA2FD8
:100FB800EE3A0319E02FCA2F1830F3005F30F20021
:100FC800F20BE42FF30BE42F0130F4070318F50AB2
:100FD8000030F5077508803AFF0080307F02031D56
:100FE800F72F06307402031CFA2FFB2F952F0800E9
:080FF80083010A128A11382F4F
:08400000FF3FFF3FFF3FFF3FC0
:04400E00E428FF3F64
:00000001FF
