:100000000A128A11FC2F00308A000408840A820731
:0E0010000034B43400345A3400340034003468
:100B86000A128A11DF250A128A1183160313111419
:100B960008000A128A11DF250A128A118316031326
:100BA600111508000A128A11DF250A128A11700827
:100BB6008312031393000800831603131419E42DFC
:100BC600E52DDF2D11081F39031DEA2DEB2DDF2D35
:100BD6000800F01CEF2DF02DF42D831203130514DD
:100BE6008510701DF72DF82DFC2D831203130510AB
:100BF6008514701CFF2D002E042E8312031305107E
:100C060085100800701C082E092E0F2E8312031360
:100C16008513871005130711F01C122E132E192E9B
:100C2600831203138517871005130711701D1C2ED9
:100C36001D2E232E83120313851387100517071104
:100C4600F01D262E272E2D2E8312031385178710AF
:100C560005170711701E302E312E372E83120313FF
:100C6600851387140513071508000630F80013309E
:100C7600F700AD30F600F60B3E2EF70B3E2EF80BC6
:100C86003E2E452E0030F000F1000A128A11902601
:100C96000A128A110630F8001330F700AD30F6005C
:100CA600F60B532EF70B532EF80B532E5A2E5A30A3
:100CB600F0000030F1000A128A1190260A128A11F9
:100CC6000630F8001330F700AD30F600F60B692E4B
:100CD600F70B692EF80B692E702EB430F000003039
:100CE600F1000A128A1190260A128A110630F800BB
:100CF6001330F700AD30F600F60B7F2EF70B7F2E84
:100D0600F80B7F2E862E5A30F0000030F1000A12C2
:100D16008A1190260A128A110800F401F50183123D
:100D260003130714C730F200982EF20B972E9B2E52
:100D36009C2EAB2EA630F200F20B9F2E0000BB2E8F
:100D4600C730F200A62EF20BA52EA92EAA2EBB2E78
:100D56007108003A0319B02E9D2E7008003A031947
:100D6600BB2E5A3A03199D2EEE3A0319A32E9D2E39
:100D7600831203130710CD2EC730F200C22EF20BDA
:100D8600C12EC52EC62EDD2EA630F200F20BC92EC0
:100D96000000DD2E7108003A0319D22EC72E700806
:100DA600003A0319BF2E5A3A0319C72EEE3A031911
:100DB600DD2EC72E1830F3005F30F200F20BE12E65
:100DC600F30BE12E0130F4070318F50A0030F5079E
:100DD6007508803AFF0080307F02031DF42E06302E
:100DE6007402031CF72EF82E922E08001030F00025
:100DF6000030F1000A128A1105260A128A110630FD
:100E0600F4001330F300AD30F200F20B082FF30BB1
:100E1600082FF40B082F0F2F0230F0000030F100DE
:100E26000A128A1105260A128A110230F0000030D1
:100E3600F1000A128A11EC250A128A110630F40012
:100E46001330F300AD30F200F20B272FF30B272FF0
:100E5600F40B272F2E2F0430F0000030F1000A1279
:100E66008A1105260A128A110430F0000030F100BA
:100E76000A128A11EC250A128A110630F400133080
:100E8600F300AD30F200F20B462FF30B462FF40BB6
:100E9600462F4D2F0130F0000030F1000A128A1162
:100EA60005260A128A110130F0000030F1000A12FC
:100EB6008A11EC250A128A110630F4001330F30069
:100EC600AD30F200F20B652FF30B652FF40B652F97
:100ED6006C2F080004308316031385000330860048
:100EE60083160317880183160313870110308312B4
:100EF6000313900086130130F0000030F1000A124F
:100F06008A11EC250A128A110130F0000030F10036
:100F16000A128A1105260A128A110A128A11F9265C
:100F26000A128A110A128A1138260A128A11FF3009
:100F360083120313A0000030A100A201A3010A122C
:100F46008A11C3250A128A113030F0000030F100F0
:100F56000A128A11D5250A128A118312031321084F
:100F6600F1002008F0000A128A11D5250A128A110A
:100F76000A128A11CC250A128A110630FB00133098
:100F8600FA00AD30F900F90BC62FFA0BC62FFB0B92
:100F9600C62FCD2F0A128A11C3250A128A113030A4
:100FA600F0000030F1000A128A11D5250A128A11C2
:100FB600831203132308F1002208F0000A128A1193
:100FC600D5250A128A110A128A11CC250A128A110B
:100FD6000630FB001330FA00AD30F900F90BF12FA3
:100FE600FA0BF12FFB0BF12FF82FA22F0A128A1101
:0A0FF600002883010A128A116D2FF2
:08400000FF3FFF3FFF3FFF3FC0
:04400E00E428FF3F64
:00000001FF
