:060000000A128A11FC2F18
:100E3600803083120313A6002530A7000A128A11F8
:100E460029270A128A110A128A110028831203130B
:100E56002708FA002608F900F90EFA0EF030FA050E
:100E660079080F39FA04F030F9057908F0007A08A4
:100E7600F1000030F11BFF30F200F3000030F70004
:100E86003D30F6000930F5000030F4000A128A11F0
:100E96005F270A128A117008FF3EFB0071080318CB
:100EA600013EFF3EFC007B081F39831603139900A1
:100EB6007B08E0399A00080083120313A101F31F8F
:100EC600652F662F732FF009F109F209F309F00A6D
:100ED6000319F10A0319F20A0319F30AA101A10A77
:100EE600F71F762F772F862FF409F509F609F709EC
:100EF600F40A0319F50A0319F60A0319F70A013069
:100F0600F8007808A1060030A5000030A4000030E3
:100F1600A3000030A2007308720471047004031960
:100F2600952F962FE32FA001A00AA62F0130F800D7
:100F36000310F00DF10DF20DF30DF80B9B2F0130A0
:100F4600F8007808A007F31FA92FAA2F992F0130C0
:100F5600F8000310A20DA30DA40DA50DF80BAC2FE0
:100F660073087702031DC12F72087602031DC12F75
:100F760071087502031DC12F70087402031CC42F6B
:100F8600C52FD42F7008F4027108031C710FF502E7
:100F96007208031C720FF6027308031C730FF70224
:100FA600221401300310F30CF20CF10CF00CFF3E8E
:100FB600031DD52F0130A002031DE22FE32FAA2F18
:100FC60021080319E72FE82FF32FA209A309A40983
:100FD600A509A20A0319A30A0319A40A0319A50A53
:100FE6002508F3002408F2002308F1002208F00087
:0A0FF600080083010A128A111B2F64
:08400000FF3FFF3FFF3FFF3FC0
:04400E00E428FF3F64
:00000001FF
