:060000000A128A11FC2F18
:100F0800831203130708023887000708FE39870091
:100F18000800F601F60AF0308316031387008601ED
:100F2800F401F501831203130608013886000A123A
:100F38008A1184270A128A1183120313071AA52F0C
:100F4800A72F0130A82F0030F000871AAC2FAE2F42
:100F58000130AF2F00307006031DB32FB52F0130BD
:100F6800B62F0030F1007108F700730877060319EF
:100F7800BE2FBF2FCA2F7703031DC32FC42FCA2F1D
:100F88000130F4070318F50A0030F5077708F00078
:100F98007008F30034307406083003197506031D11
:100FA800D62FD72FDA2F7608060486003430740639
:100FB800083003197506031DE22FE32FA02F8710B1
:100FC8000330F2008A30F1005530F000F00BEA2FC0
:100FD800F10BEA2FF20BEA2FF12F76098312031394
:100FE80006058600F401F5019B2F0A128A110028D4
:080FF80083010A128A118D2FFA
:08400000FF3FFF3FFF3FFF3FC0
:04400E00E428FF3F64
:00000001FF
