:060000000A128A11FC2F18
:100F1600831203138617871006170711080083121A
:100F2600031386138710061307110800043083166F
:100F360003138500033086008701F501F601F301EE
:100F4600F4010A128A118B270A128A1100308312C1
:100F5600031386180130F800770878060319B42FB2
:100F6600B52FC02F7803031DB92FBA2FC02F01301C
:100F7600F5070318F60A0030F6077808F00070083F
:100F8600F700003006180130F800770878060319D4
:100F9600CD2FCE2FD92F7803031DD22FD32FD92FA4
:100FA6000130F3070318F40A0030F4077808F0005C
:100FB6007008F70034307506083003197606031DED
:100FC600E52FE62FA92F0A128A1192270A128A11F3
:100FD6000330F2008A30F1005530F000F00BF12FAB
:100FE600F10BF12FF20BF12FF82FA02F0A128A1115
:0A0FF600002883010A128A11992FC6
:08400000FF3FFF3FFF3FFF3FC0
:04400E00E428FF3F64
:00000001FF
