:060000000A128A11FC2F18
:100EEC00831203130708023887000708FE398700AE
:100EFC000800F601F60AF03083160313870086010A
:100F0C00F401F501831203130608013886000A1256
:100F1C008A1176270A128A1183120313071A972F44
:100F2C00992F01309A2F0030F000871A9E2FA02F96
:100F3C000130A12F00307006031DA52FA72F013003
:100F4C00A82F0030F1007108F70073087706031919
:100F5C00B02FB12FBC2F7703031DB52FB62FBC2F8D
:100F6C000130F4070318F50A0030F5077708013E45
:100F7C00F000003003180130F10070087104031DFB
:100F8C00C82FCA2F0130CB2F0030F2007208F300AB
:100F9C0034307406083003197506031DD62FD72F6D
:100FAC00DA2F7608060486003430740608300319EC
:100FBC007506031DE22FE32F922F87100330F200EA
:100FCC008A30F1005530F000F00BEA2FF10BEA2FCC
:100FDC00F20BEA2FF12F7609831203130605860014
:100FEC00F401F5018D2F0A128A11002883010A12CF
:040FFC008A117F2FA8
:08400000FF3FFF3FFF3FFF3FC0
:04400E00E428FF3F64
:00000001FF
