:060000000A128A11FC2F18
:100E2200192F00000130F0020030031CF103F1021F
:100E320070087104031D1E2F1F2F122F080083122A
:100E4200031307147308F1007208F0000A128A11E2
:100E520011270A128A11831203130710D030F400EB
:100E62000730F50072087402F0007308031C730A5D
:100E72007502F1000A128A1111270A128A1118301A
:100E8200F5005F30F400F40B442FF50B442F0800FB
:100E9200043083160313850003308600831603177C
:100EA200880183160313870183120313071042304C
:100EB200F600F60B5A2F0000831203130714C730F3
:100EC200F600632FF60B622F662F672F8312031330
:100ED20007101930F700AB30F600F60B6E2FF70B48
:100EE2006E2F732F0630F8001330F700AD30F60086
:100EF200F60B792FF70B792FF80B792F802FE8302B
:100F0200F2000330F3000A128A1120270A128A1112
:100F1200E830F2000330F3000A128A1120270A1285
:100F22008A11E830F2000330F3000A128A112027F6
:100F32000A128A110630F8001330F700AD30F600BD
:100F4200F60BA12FF70BA12FF80BA12FA82FDC3046
:100F5200F2000530F3000A128A1120270A128A11C0
:100F6200DC30F2000530F3000A128A1120270A123F
:100F72008A11DC30F2000530F3000A128A112027B0
:100F82000A128A110630F8001330F700AD30F6006D
:100F9200F60BC92FF70BC92FF80BC92FD02FD6305C
:100FA200F2000630F3000A128A1120270A128A116F
:100FB200D630F2000630F3000A128A1120270A12F4
:100FC2008A11D630F2000630F3000A128A11202765
:100FD2000A128A110630F8001330F700AD30F6001D
:100FE200F60BF12FF70BF12FF80BF12FF82F802FC3
:0E0FF2000A128A11002883010A128A11492F5F
:08400000FF3FFF3FFF3FFF3FC0
:04400E00E428FF3F64
:00000001FF
