:100000000A128A11FC2F00308A000408840A820731
:0E0010000034B43400345A3400340034003468
:100C9400F01C4D2E4E2E522E831203130514851074
:100CA400701D552E562E5A2E8312031305108514CB
:100CB400701C5D2E5E2E622E8312031305108510A8
:100CC400080004308316031385000330860083165E
:100CD400031788018316031387011030831203134B
:100CE400900086130130F0000030F1000A128A11DE
:100CF4004A260A128A110130F0000030F1000A126B
:100D04008A1194260A128A110A128A1188270A1251
:100D14008A110A128A11C7260A128A11902E0A12FF
:100D24008A110028701C972E982E9E2E831203136E
:100D34008513871005130711F01CA12EA22EA82ECF
:100D4400831203138517871005130711701DAB2E2B
:100D5400AC2EB22E831203138513871005170711C7
:100D6400F01DB52EB62EBC2E8312031385178710E3
:100D740005170711701EBF2EC02EC62E8312031333
:100D8400851387140513071508000630F80013307F
:100D9400F700AD30F600F60BCD2EF70BCD2EF80B89
:100DA400CD2ED42E0030F000F1000A128A111F2734
:100DB4000A128A110630F8001330F700AD30F6003D
:100DC400F60BE22EF70BE22EF80BE22EE92E5A3048
:100DD400F0000030F1000A128A111F270A128A114A
:100DE4000630F8001330F700AD30F600F60BF82E9D
:100DF400F70BF82EF80BF82EFF2EB430F00000306D
:100E0400F1000A128A111F270A128A110630F8000B
:100E14001330F700AD30F600F60B0E2FF70B0E2F44
:100E2400F80B0E2F152F5A30F0000030F1000A1283
:100E34008A111F270A128A110800F401F50183128E
:100E440003130714C730F200272FF20B262F2A2F83
:100E54002B2F3A2FA630F200F20B2E2F00004A2F30
:100E6400C730F200352FF20B342F382F392F4A2F89
:100E74007108003A03193F2F2C2F7008003A031908
:100E84004A2F5A3A03192C2FEE3A0319322F2C2FDA
:100E94008312031307105C2FC730F200512FF20B9B
:100EA400502F542F552F6C2FA630F200F20B582FD1
:100EB40000006C2F7108003A0319612F562F700837
:100EC400003A03194E2F5A3A0319562FEE3A0319D2
:100ED4006C2F562F1830F3005F30F200F20B702F96
:100EE400F30B702F0130F4070318F50A0030F507EF
:100EF4007508803AFF0080307F02031D832F06307F
:100F04007402031C862F872F212F08001030F00055
:100F14000030F1000A128A1194260A128A1106304E
:100F2400F4001330F300AD30F200F20B972FF30B03
:100F3400972FF40B972F9E2F0230F0000030F10012
:100F44000A128A1194260A128A110230F000003023
:100F5400F1000A128A114A260A128A110630F40094
:100F64001330F300AD30F200F20BB62FF30BB62FB3
:100F7400F40BB62FBD2F0430F0000030F1000A123C
:100F84008A1194260A128A110430F0000030F1000C
:100F94000A128A114A260A128A110630F400133002
:100FA400F300AD30F200F20BD52FF30BD52FF40B79
:100FB400D52FDC2F0130F0000030F1000A128A1125
:100FC40094260A128A110130F0000030F1000A124E
:100FD4008A114A260A128A110630F4001330F300EB
:100FE400AD30F200F20BF42FF30BF42FF40BF42FCB
:0C0FF400FB2F080083010A128A11632EF3
:08400000FF3FFF3FFF3FFF3FC0
:04400E00E428FF3F64
:00000001FF
