:060000000A128A11FC2F18
:100F1E008312031385178710051707110800831214
:100F2E000313851387100513071108000430831669
:100F3E0003138500033086008701F501F601F301E6
:100F4E00F4010A128A118F270A128A1100308312B5
:100F5E00031386180130F800770878060319B82FA6
:100F6E00B92FC42F7803031DBD2FBE2FC42F013000
:100F7E00F5070318F60A0030F6077808F000700837
:100F8E00F700003006180130F900790879060319C8
:100F9E00D12FD22FDD2F7903031DD62FD72FDD2F83
:100FAE000130F3070318F40A0030F40734307506E5
:100FBE00083003197606031DE52FE62FAD2F0A1212
:100FCE008A1196270A128A110330F2008A30F10034
:100FDE005530F000F00BF12FF10BF12FF20BF12F3A
:100FEE00F82FA42F0A128A11002883010A128A11DF
:020FFE009D2F25
:08400000FF3FFF3FFF3FFF3FC0
:04400E00E428FF3F64
:00000001FF
