:060000000A128A11FC2F18
:100DC400831203130510851008008312031385177B
:100DD400871005170711080083120313851387145E
:100DE40005130715080083120313851787100513CD
:100DF40007110800831203138513871005130711C5
:100E040008008312031385138710051707110800C0
:100E140070037104031D0F2F102F152F831203135A
:100E240005148510192F8312031305108514080067
:100E340004308316031385000330860083160317DA
:100E44008801831603138701F901FA01F701F801F8
:100E54008312031386130A128A11EE260A128A11C8
:100E64000630F4001330F300AD30F200F20B382FEB
:100E7400F30B382FF40B382F3F2F0A128A11F52663
:100E84000A128A110130F0000030F1000A128A11AE
:100E94000A270A128A110630F4001330F300AD3029
:100EA400F200F20B532FF30B532FF40B532F5A2F43
:100EB4000A128A1103270A128A110030F000F10085
:100EC4000A128A110A270A128A110630F400133012
:100ED400F300AD30F200F20B6D2FF30B6D2FF40B1A
:100EE4006D2F742F0A128A11FC260A128A110630F9
:100EF400F4001330F300AD30F200F20B7F2FF30B4C
:100F04007F2FF40B7F2F862F0A128A11E7260A12ED
:100F14008A110A128A11E2260A128A1100308312F7
:100F2400031386180130FB0075087B0603199B2FF9
:100F34009C2FA72F7B03031DA02FA12FA72F0130C8
:100F4400F9070318FA0A0030FA077B08F20072085E
:100F5400F5001A307906043003197A06031DB32FFD
:100F6400B42FB52F8617003006180130FC00760820
:100F74007C060319BE2FBF2FCA2F7C03031DC32F6A
:100F8400C42FCA2F0130F7070318F80A0030F807F6
:100F94007C08F2007208F6001A3077060430031950
:100FA4007806031DD62FD72FD82F8617343079060D
:100FB400083003197A06031DE02FE12F902F8613C2
:100FC4000A128A11FC260A128A110630F400133020
:100FD400F300AD30F200F20BED2FF30BED2FF40B19
:100FE400ED2FF42FF901FA01F701F801902F0A12FD
:0C0FF4008A11002883010A128A111A2FAA
:08400000FF3FFF3FFF3FFF3FC0
:04400E00E428FF3F64
:00000001FF
